:1000000000200010150100008D0100008D0100008E
:1000100000000000000000000000000000000000E0
:100020000000000000000000000000008D01000042
:1000300000000000000000008D0100008D010000A4
:100040008D0100008D0100008D010000B908000045
:100050008D0100008D0100008D0100008D01000068
:100060008D0100008D0100008D0100008D01000058
:100070008D0100008D0100008D0100008D01000048
:100080008D0100008D0100008D0100008D01000038
:100090008D0100008D0100008D0100008D01000028
:1000A0008D0100008D0100008D0100008D01000018
:1000B0008D0100008D0100008D0100008D01000008
:1000C00080B500AF0D4B1A680C4B80218A431A6033
:1000D0000B4B00221A600B4B01221A600A4B0422C0
:1000E0001A60084B01221A60084B03221A60084B61
:1000F00001221A60C046BD4680BDC0463882044019
:1001000040800440448004400880044070800440E3
:100110007480044080B584B000AFFFF7D1FF164B68
:10012000FB60164BBB60164A144BD31A7B6007E08A
:10013000FA68531CFB60BB68591CB96012781A70CE
:100140007B685A1E7A60002BF2D10E4BBB600E4AC0
:100150000C4BD31A7B6004E0BB685A1CBA600022C7
:100160001A707B685A1E7A60002BF5D100F0D2F825
:10017000C046BD4604B080BDFC7100000000001008
:10018000D4010010D40100101402001080B500AF9B
:10019000FEE7C04680B500AF1E4B1A681D4B10210C
:1001A0000A431A601B4B1A681A4B20210A431A6033
:1001B000194B1A68184B802189020A431A60164BA2
:1001C0001A68154B802189010A431A60124B1A687C
:1001D000114B08210A431A600F4B1A680E4B042179
:1001E0000A431A600C4B1A680B4B802109010A4321
:1001F0001A60094B1A68084B8021C9000A431A602B
:10020000054B1A68044B02218A431A60C046BD465A
:1002100080BDC046C0C10040002000A080B584B0B1
:1002200000AF7860364B374A1A60374B354A1A6050
:10023000364B05221A6007E0344B1A6880235B02B4
:10024000134001D0002357E0314B1B78DBB2002B69
:10025000F2D12E4B00221A60294B2A4A1A602A4BEF
:10026000284A1A60294B05221A6007E0274B1A68B2
:1002700080235B02134001D000233DE0244B1B7818
:10028000DBB2002BF2D0214B00221A601C4B1D4A1E
:100290001A601D4B1B4A1A601C4B05221A60002372
:1002A000FB601DE0194B1A6880235B02134001D0EC
:1002B000002321E0164B1B78DBB2002BF2D107E0C4
:1002C000124B1A6880235B02134001D0002313E015
:1002D0000F4B1B78DBB2002BF2D0FB680133FB60C5
:1002E000FA687B689A42E5DB084B00221A60064BED
:1002F0001B6880225204D31A1800BD4604B080BD8A
:1003000014E000E0FFFFFF0018E000E010E000E074
:10031000010000A080B59EB000AFE1235B02180091
:1003200000F052FA62B6FFF735FF00F0B5F9FA2394
:100330005B00180000F0D0F83E4B180000F050FBB6
:100340003D4B01220121180000F0C8F96420FFF79D
:1003500065FF03007B677B6F384A93420ADC7B6F43
:10036000374A934206DD374B01220221180000F084
:10037000B5F95AE07B6F002B53DD786F02F056F829
:10038000C0221206304B00F05DFF02000B0010008F
:10039000190002F0C3F8031C3B67396FFE2080058B
:1003A00000F038FE031CFB66386F02F06FF8274A36
:1003B000274B01F03DFA02000B001000190000224B
:1003C000244B00F03FFF02000B0010001900002238
:1003D000214B01F02DFA02000B00100019001F4AFA
:1003E0001F4B01F091FC02000B001000190002F0FD
:1003F00095F8031CBB667A6F1A4B1100180003F0C6
:1004000065FBB86E02F042F802000B001649381D79
:1004100003F006FC3B1D01220221180000F05EF9EA
:1004200003E0124B180000F0DBFAC82000F054F88B
:100430008CE7C046C86B00002C6C0000306F0100D8
:10044000BF5701003C6C00000B5AF6410AD7A3705D
:100450003D0AF73F00609F4065CDCD4148E17A14E9
:10046000AE47FD3F486C0000506C00005C6C000023
:1004700080B582B000AF0200FB1D1A70FB1D1B7817
:100480001900104800F0DAFC030019000E4800F0D3
:10049000D5FC03005A1E0D4B1A600D4B00221A604A
:1004A0000C4B05221A60C0460A4B1A6880235B0277
:1004B0001340F9D0074B00221A60C046BD4602B077
:1004C00080BDC04640420F0080C3C90114E000E077
:1004D00018E000E010E000E080B584B000AF786084
:1004E0000023FB6015E00B23FB1800221A7008E0C4
:1004F000FA20FFF7BDFF0B217B181A787B18013219
:100500001A700B23FB181B78032BF1D9FB680133FE
:10051000FB60FA687B689A42E5D3C046C046BD4698
:1005200004B080BD80B500AF054B01221A702820B1
:10053000FFF79EFF024B00221A70C046BD4680BDE9
:100540000D0000A080B582B000AF0200FB1D1A7044
:10055000FB1D1B785BB2002B03DA334B01221A70B0
:1005600002E0314B00221A70FB1D1B784022134021
:1005700003D02E4B01221A7002E02C4B00221A707D
:10058000FB1D1B782022134003D0294B01221A7037
:1005900002E0274B00221A70FB1D1B78102213402B
:1005A00003D0244B01221A7002E0224B00221A7061
:1005B000FFF7B8FF2820FFF75BFFFB1D1B78082221
:1005C000134003D0184B01221A7002E0164B002290
:1005D0001A70FB1D1B780422134003D0134B012219
:1005E0001A7002E0114B00221A70FB1D1B780222C8
:1005F000134003D00E4B01221A7002E00C4B002274
:100600001A70FB1D1B780122134003D0094B0122F5
:100610001A7002E0074B00221A70FFF783FFC046F2
:10062000BD4602B080BDC0460A0000A00B0000A07D
:10063000020000A0030000A080B582B000AF02005D
:10064000FB1D1A70074B01221A70FB1D1B78180046
:10065000FFF778FF0220FFF73FFFC046BD4602B01C
:1006600080BDC046110000A080B582B000AF02007E
:10067000FB1D1A70074B00221A70FB1D1B78180017
:10068000FFF760FF0520FFF727FFC046BD4602B019
:1006900080BDC046110000A080B500AF0E4B002207
:1006A0001A701420FFF718FF3320FFF7DDFF332007
:1006B000FFF7DAFF3220FFF7D7FF2820FFF7D4FF3C
:1006C0000C20FFF7D1FF0120FFF7CEFF1420FFF72A
:1006D00003FFC046BD4680BD0D0000A080B584B0BC
:1006E00000AF786008001100FB1C021C1A70BB1CD4
:1006F0000A1C1A70FB1C1B78022B01D1C02300E0DE
:1007000080231800FFF7B0FF0520FFF7E5FE002368
:10071000FB6009E0FB687A68D3181B781800FFF7C4
:100720008BFFFB680133FB60FB687A68D3181B788A
:10073000002BEFD1BB1C1B78002B09D005E020203B
:10074000FFF77AFFFB680133FB60FB680F2BF6DDD8
:10075000C046BD4604B080BD80B584B000AF7860AF
:1007600008001100FB1C021C1A70BB1C0A1C1A702A
:10077000FB1C1B78022B01D1C02300E08023BA1C94
:1007800012789B18DBB2013BDBB21800FFF76CFF5D
:100790000520FFF7A1FE0023FB6009E0FB687A68F3
:1007A000D3181B781800FFF747FFFB680133FB6085
:1007B000FB687A68D3181B78002BEFD1C046C0467F
:1007C000BD4604B080BDC04680B582B000AF786041
:1007D0002B4B1A682A4B08218A431A60294B1A6846
:1007E000284B8021C9010A431A60254B1A68244B03
:1007F00008210A431A60244B1A68234B08210A4334
:100800001A60224B1A68214B01210A431A60204BBF
:100810001A681F4BFF218A431A601D4B1A681C4B34
:1008200004210A431A601A4B1A68194B19490A40E5
:100830001A60174A164B12681A60174B01221A6089
:10084000164B00221A60164B00221A607B681B01AF
:100850001900144800F0F2FA03001A00124B1A6053
:10086000124B01221A60124B00221A60114B1A68B7
:10087000104B05210A431A60C046BD4602B080BD38
:10088000048004408080044000E100E0C0C10040DA
:1008900000C00040FF00FFFF94800440F08004404F
:1008A000F480044000879303204006400C4006403B
:1008B000044006400040064080B582B000AF094BBE
:1008C0001B687B607B680122134007D0064B1B68C6
:1008D000DAB2064B1100180000F00AF8C046BD4617
:1008E00002B080BD2440064014400640D4010010F0
:1008F00080B582B000AF78600A00FB1C1A707B687C
:100900009B680F2B14D872B67B689B685A1C7B6857
:100910009A607B681B687A68D318FA1C12781A737D
:100920007B681B6801330F221A407B681A6062B62D
:10093000C046BD4602B080BD80B584B000AF7860CF
:100940000F217B1800221A707B689B68002B14D043
:1009500072B67B689B685A1E7B689A607B685A688F
:100960007B1879688A18127B1A707B685B68013380
:100970000F221A407B685A6062B60F23FB181B785F
:100980001800BD4604B080BD80B500AF024B9B6827
:100990001800BD4680BDC046D401001080B584B0AB
:1009A00000AF0200FB1D1A700A4BFB60C046FB68DB
:1009B0005A1EFA60002B04D0074B1B680422134018
:1009C000F5D0064BFA1D12781A60C046BD4604B039
:1009D00080BDC046FFFF0000084006401C400640A6
:1009E00080B582B000AF786007E07B681B781800A4
:1009F000FFF7D4FF7B6801337B607B681B78002B9B
:100A0000F3D1C046C046BD4602B080BD80B500AF40
:100A1000034B1800FFF790FF03001800BD4680BD90
:100A2000D4010010B0B584B000AF78603960002305
:100A3000FB600B23FB1800221A7020E00B257C19A9
:100A4000FFF7E4FF030023707B191B78002BF5D020
:100A50007B191B781800FFF7A1FF29007B181B7872
:100A60000A2B0CD07B181B780D2B08D0FB685A1C66
:100A7000FA601A007B689B187A1812781A703B6823
:100A8000013BFA689A4208DA0B22BB181B780A2B42
:100A900003D0BB181B780D2BD0D1FB68002B04DDD5
:100AA000FB687A68D31800221A70FB681800BD46EC
:100AB00004B0B0BD80B582B000AF78607B6818002C
:100AC000FFF78EFF034B1800FFF78AFFC046BD46B5
:100AD00002B080BD7C6C000090B595B000AFF860AE
:100AE000B9607A603823FB18224A13CA13C311680D
:100AF000196012791A711423FB18202200219954CD
:100B00001F23FB641BE0FB68B968180000F07CFA47
:100B10000B001900FB6C5A1EFA643822BA18515C9B
:100B20001422BA18D154B968F86800F087F90300A4
:100B3000FB607B68002B02D07B68013B7B60FB681D
:100B4000DA17D31ADB0FDAB27B68D917CB1ADB0FAF
:100B5000DBB21343DBB2002BD5D1FB6C0133142283
:100B6000BA18D3181800FFF73BFFC046BD4615B0B2
:100B700090BDC046806C000080B582B000AF786048
:100B8000FEE780B582B000AF786001235B421800B9
:100B9000BD4602B080BD80B584B000AFF860B960DA
:100BA0007A60044B0C221A6001235B421800BD4698
:100BB00004B080BDF801001080B500AF034B0B22DC
:100BC0001A6001235B421800BD4680BDF801001089
:100BD00080B582B000AF786039603B6880229201B6
:100BE0005A6000231800BD4602B080BD80B500AF3A
:100BF00001231800BD4680BD80B582B000AF78608B
:100C00007B68022B01D8012303E0044B09221A6000
:100C100000231800BD4602B080BDC046F801001098
:100C200080B582B000AF78603960044B16221A603C
:100C300001235B421800BD4602B080BDF8010010E0
:100C400080B582B000AF78603960044B1F221A6013
:100C500001235B421800BD4602B080BDF8010010C0
:100C600080B584B000AFF860B9607A6000231800E6
:100C7000BD4604B080BD80B586B000AF7860164B2D
:100C80007B61164B3B61164B1B68002B02D1144B4A
:100C90007A691A60124B1B68FB603B69BB60104BA2
:100CA0001A687B68D318BA689A4209D20D4B1800AB
:100CB000FFF700FF0C4B0C221A6001235B4206E099
:100CC000074B1A687B68D218054B1A60FB6818003E
:100CD000BD4606B080BDC0460010001000180010D0
:100CE000F4010010946C0000F8010010B0B588B059
:100CF00000AFF860B9607A600023BB61FB68002B2D
:100D000019D10023FB6111E017257C19FFF77EFE46
:100D100003002370BB685A1CBA607A1912781A70E3
:100D2000BB690133BB61FB690133FB61FA697B6815
:100D30009A42E9DB05E0054B09221A6001235B4278
:100D400000E0BB691800BD4608B0B0BDF801001056
:100D500080B582B000AF786039603B688022920134
:100D60005A6000231800BD4602B080BD80B582B035
:100D700000AF786001235B421800BD4602B080BD21
:100D800080B582B000AF7860044B02221A60012364
:100D90005B421800BD4602B080BDC046F80100109D
:100DA00080B582B000AF7860044B0A221A6001233C
:100DB0005B421800BD4602B080BDC046F80100107D
:100DC00080B586B000AFF860B9607A60FB68012B2F
:100DD00003D0FB68022B12D023E000237B6109E0E3
:100DE000BB685A1CBA601B781800FFF7D7FD7B69F7
:100DF00001337B617A697B689A42F1DB17E000235B
:100E00007B6109E0BB685A1CBA601B781800FFF7C9
:100E1000C5FD7B6901337B617A697B689A42F1DBAE
:100E200005E0054B09221A6001235B4200E07B6864
:100E30001800BD4606B080BDF801001003460B4304
:100E40007FD4002243088B4274D303098B425FD3C3
:100E5000030A8B4244D3030B8B4228D3030C8B42EF
:100E60000DD3FF22090212BA030C8B4202D31212D5
:100E7000090265D0030B8B4219D300E0090AC30BAA
:100E80008B4201D3CB03C01A5241830B8B4201D357
:100E90008B03C01A5241430B8B4201D34B03C01A40
:100EA0005241030B8B4201D30B03C01A5241C30AB8
:100EB0008B4201D3CB02C01A5241830A8B4201D329
:100EC0008B02C01A5241430A8B4201D34B02C01A13
:100ED0005241030A8B4201D30B02C01A5241CDD2B8
:100EE000C3098B4201D3CB01C01A524183098B4203
:100EF00001D38B01C01A524143098B4201D34B01EC
:100F0000C01A524103098B4201D30B01C01A52414E
:100F1000C3088B4201D3CB00C01A524183088B42D5
:100F200001D38B00C01A524143088B4201D34B00BE
:100F3000C01A5241411A00D2014652411046704730
:100F40005DE0CA0F00D04942031000D34042534035
:100F500000229C4603098B422DD3030A8B4212D3F5
:100F6000FC22890112BA030A8B420CD38901921127
:100F70008B4208D3890192118B4204D389013AD064
:100F8000921100E08909C3098B4201D3CB01C01A39
:100F9000524183098B4201D38B01C01A524143094C
:100FA0008B4201D34B01C01A524103098B4201D33A
:100FB0000B01C01A5241C3088B4201D3CB00C01AA7
:100FC000524183088B4201D38B00C01A5241D9D2BF
:100FD00043088B4201D34B00C01A5241411A00D240
:100FE0000146634652415B10104601D34042002B3C
:100FF00000D54942704763465B1000D3404201B5BB
:10100000002000F005F802BD0029F8D016E770476F
:101010007047C046F0B54F464646D6464502C0B575
:1010200047000C1C6D0A3F0EC60F002F00D170E068
:10103000FF2F00D175E0EB008025ED041D43002358
:1010400099469A467F3F6002430A984663001B0E0A
:10105000E40F002B4ED0FF2B46D04246D00080221A
:10106000D2040243904600227F3B3100FF1A4B46D8
:101070006140C9B213430F2B00D9B5E06E489B0005
:10108000C3589F460023984626004546924653463D
:10109000022B00D189E0032B00D19EE0012B18D058
:1010A0003B007F33002B69DD6A0704D00F222A4002
:1010B000042A00D004352A0103D5604B1D403B00B3
:1010C0008033FE2B00DD70E0AD016D0AD8B202E086
:1010D0000E0000200025C0052843F6073043E0BC81
:1010E000BA46B146A846F0BD4346002B3FD1022286
:1010F000FF3F03E04346002B2DD1012231004B4638
:101100006140C9B213430F2B34D84D489B00C358DC
:101110009F46002D13D104239946033B00279A468E
:1011200091E7002D05D108239946063BFF279A46F3
:1011300089E70C239946093BFF279A4683E7280055
:1011400001F0FEFA7627431F9D4000237F42994617
:101150009A463F1A77E7404601F0F2FA4246431FAB
:101160009A4076235B4290461B1A00227DE7FF23BC
:1011700003227AE70E00FF200025ACE70120C01A09
:101180001B28A6DC9E372A00BD40C2406B1E9D4135
:1011900015436B0704D00F232B40042B00D00435DC
:1011A0006B0144D50120002595E7FF20002592E73B
:1011B00080250026FF20ED038DE700239846802040
:1011C000C003054209D04346034206D145460543C4
:1011D0006D022600FF206D0A7DE78020C0030543D5
:1011E0006D02FF206D0A76E742466B015001834293
:1011F00019D21B220025013F01261C006D005B0057
:10120000002C01DB984201D81B1A3543013A002A11
:10121000F3D15A1E93411D433B007F330E00002B38
:1012200000DD41E7AAE71A2201251B1AE4E7AD0118
:1012300000206D0A4FE7C046B06C0000FFFFFFF7CB
:10124000F06C0000F0B557464E464546DE46E0B528
:10125000814605000C03480092461F0085B0240B10
:10126000400DCE0F002800D156E1D44B984200D15A
:1012700072E16B0FE4001C4380231B042343984658
:10128000CF4BED009B4600239946834400933C03DB
:101290007B005046240B5B0DFF0F002B00D11FE19C
:1012A000C64A934200D162E1C549420F8C46E40030
:1012B00059461443802263441204CB1A14439B46BC
:1012C000C200002033007B409A464B460F2B27D8A4
:1012D000BC499B00CB589F46B246009B022B16D0C0
:1012E000032B00D18EE2012B00D0D9E00023002493
:1012F000002552461B052343D2071343280019003B
:1013000005B0F0BCBB46B246A946A046F0BD0024DD
:101310000025AA4BEDE7BA46A04615000090DCE791
:10132000444500D2C7E100D1C2E101235B429C46A3
:101330002E0040460025E3442302140E1C431B0CE0
:10134000994623041F0C120249460092019701F0AE
:10135000F3F902007A430B04310C804619438A42A8
:1013600007D901235B429C460919E0448C4200D80E
:1013700007E2881A494601F0DFF909048C46310476
:101380006646019A090C4243030031438A4204D95C
:101390000919013B8C4200D8EDE1881A424612043B
:1013A0001A4390464146009B0E041B0C1F000293FB
:1013B000009B360C1B04190C0B007343120C7E436C
:1013C000039151437A431F0CBC4676186644B142E0
:1013D00003D9802149028C466244310C8A183104B9
:1013E0001E04360C8E19904202D312D1B54210D28F
:1013F0004346591E009B9C4665441F009D429B41ED
:101400005B421B19C018844200D2A0E100D19BE1CD
:101410008846AE1BB542AD41801A6D42401B8442E6
:1014200000D1D5E1494601F087F9019A0B04424306
:10143000310C050019438A4200D96CE1881A4946EB
:1014400001F07AF9019A360442430904360C03008C
:101450000E43B24200D953E10398B61A02002D049C
:101460001D43029F2B041B0C5A437B439C46290CB3
:101470004843130C844463447943984203D9802041
:10148000400284466144180C12041B04120C4118DB
:101490009B188E4200D2FFE000D1FAE001231D43E9
:1014A000494A5A44002A00DCAAE06B0700D03DE11B
:1014B000ED084346DB0106D54246444B1A409046B0
:1014C0008022D2005A44424B9A4200DD1FE7434635
:1014D0005B071D43434652055C02240B530D08E78E
:1014E0005246224300D17BE0002C00D1FAE02000DC
:1014F00001F026F902000B3A1D2301009B1A524607
:101500000839DA408C40144352468A40314B5844E3
:101510009B4683440020D5E64B462343984644D05F
:10152000002C00D1CEE0200001F00AF901000200F9
:101530000B391D235B1A49461000D94008388440F6
:101540000B004D462343984685402348831A9B460B
:101550000023994600939AE64B46234398461DD1B3
:1015600008239946063B0025834600938FE65246A2
:10157000224309D1022349461943184B89469C4608
:1015800000240220E3449DE603234A461A43134BFA
:1015900091469C4652460320E34493E60C23994629
:1015A000093BA0468346009371E604239946002335
:1015B0009B4601330025009369E6C046FF07000003
:1015C00001FCFFFF306D0000FF030000FFFFFFFE86
:1015D000FE070000F30300000DFCFFFF01F8FFFF12
:1015E0004946012319438946002401206AE6002365
:1015F00080249A4600258A4B24037AE601256D4211
:1016000001239B1A382B00DD70E61F2B00DCBFE0A6
:101610001F2149428A1A4146D1400A00202B04D09A
:101620004146804B5B4499400D436B1E9D4107230F
:101630002A431D0000241540134200D1D4E00F219D
:1016400000231140042900D1CBE0111D91429241A9
:1016500052429B180A00190200D4C2E00123002460
:10166000002546E6802341461B03194208D01C4250
:1016700006D11C432403BA461500694B240B38E6F7
:101680008024434624031C432403B246644B240BAA
:101690002FE6002B00D103E7A619681EA64200D250
:1016A0008DE08E4200D2A3E000D1B3E00500F5E664
:1016B000AA4200D939E64346DE0758086B081E43A4
:1016C000ED0739E6484601F03BF80100020015310C
:1016D00020321C2900DC2CE74B46083883400025CB
:1016E000984632E701F02CF803001A00153220303A
:1016F0001C2A00DC00E75446083B00229C4005E71A
:101700003619013BB44200D9A6E6B24200D8A3E69E
:10171000831E3619A0E60919013D8C4200D98DE6D9
:101720008A4200D88AE6851E091987E60F232B40D6
:10173000042B00D1BCE605235B42AB429B41043540
:101740005B42ED089844B4E6AF4200D960E68242BD
:1017500004D800D05CE6AE4200D859E602235B42D2
:101760009C46009BE0449C4665449D429B415B42F5
:101770001B19C0184DE68A4200D80EE6831E0919CF
:101780000BE68A4200D8F4E5831E98460919F0E575
:101790002549280059448D4042468A40691E8D41A2
:1017A0004146D840D94002432A430B00510700D19B
:1017B00051E70F211140042900D046E74BE705000F
:1017C0008E4200D06AE6009A934200D066E667E651
:1017D000164A5A44002A00DC10E7012300259844E9
:1017E00067E65D075B021C0BD2080023154380E50A
:1017F0000098023D42008242BF417F423C193619A7
:101800000092DDE78024434624031C432403044B59
:10181000240B6EE5009A9A42EAD30500D3E7C0464E
:10182000FF0700003E0400001E040000FF0300004C
:10183000F0B557464E464546DE46E0B598460C03A1
:101840004B000600924687B0240B5B0DCF0F002B98
:1018500000D15CE1D94A934200D175E1420FE40026
:101860001443802212041443D54AC50094466344AD
:101870000093002399469B46434642461E03D20FDF
:101880005B0050469046360B5B0D00D120E1CB4A01
:10189000934200D162E1CA49420F8C4600996344E9
:1018A000F6008C46164380229C441204634616437D
:1018B000C200002000930099434601318C464946FE
:1018C0007B4001930F2926D8BE4B890059588F467B
:1018D000434601933400150083465B46022B16D025
:1018E000032B00D103E2012B00D0CDE00022002425
:1018F0000025019B12052243DB071A432800110033
:1019000007B0F0BCBB46B246A946A046F0BD0024D5
:101910000025AA4AEDE7280C2D042D0C2B00110CF4
:101920001204120C5343984613002F004343994668
:101930004F434F44BB4647460B003F0CBA46434318
:10194000DA440293D14504D980277F02B9464B443B
:10195000029353461B0C9B4653461F0443461B04ED
:101960001B0C98463B0043440493330C3604360C5E
:101970009846330043439946434643432F009A46D3
:10198000434677435D43380C4D444519A94503D977
:1019900080235B029946CA443F04280C3F0C2D0467
:1019A000ED19270C2404240C0300200050437A4333
:1019B00091463A0053440593030C9A464A436143C7
:1019C00049445144AB44894503D980235B0299467D
:1019D0004A4400040B0C000C090409182000994625
:1019E000434670435C437E435F43030C9846A4190F
:1019F00044444A440397A64204D980235B02984694
:101A0000474403972304029E9A46059B5E449846EA
:101A1000AE42AD4176188E4289410004000C50441C
:101A200040446D424719B846934649428946C344EB
:101A3000D94498428041A845AD419345924189459A
:101A400089416D4240422843240C524249420A4394
:101A5000039B00198018C7184B46DC0D049B7502C8
:101A60001D436A1E95414B46F60D7F0235435A02CF
:101A70003C431543FB0100D41CE101216A080D40E1
:101A80001543E207154364084F496144002900DC0F
:101A9000B0E06B0709D00F222A40042A05D02A1D86
:101AA000AA42AD416D4264191500E30104D58021BD
:101AB000464AC90014406144454A914200DD26E788
:101AC0006207ED08640249051543240B4A0D10E72F
:101AD0005246324300D17FE0002E00D1DCE03000DE
:101AE00000F02EFE02000B3A1D2301009B1A524605
:101AF0000839DA408E40164352468A40009B3549E9
:101B0000181A03008C46634400200093D3E6250096
:101B100005434AD0002C00D1B0E0200000F010FEB8
:101B2000010002000B391D2310005B1A3100350043
:101B300008388440D94085400C432648831A0093D6
:101B4000002399469B4697E60500254326D10822A7
:101B500000930223002491469B468DE65246009B4B
:101B6000324310D1154900268C4663444946009300
:101B700002231943894602209DE65B460197022B0A
:101B800000D0ADE6C3E60D4A0320944663444A46BE
:101B9000009303231A43914652468CE60C2200938D
:101BA0000323050091469B4666E6042399460023DD
:101BB0000093013300249B465EE6C046FF07000009
:101BC00001FCFFFF706D0000FF030000FFFFFFFE40
:101BD000FE0700000DFCFFFF49460123194389461B
:101BE0000026012067E6002380240025434A019354
:101BF00024037EE60120401A382800DD76E61F28FF
:101C00005BDD1F2223005242511ACB4019002028CD
:101C100003D03B4A6244944025436A1E95412A0002
:101C20000A4307210D000024154011425BD00F210B
:101C300000241140042953D0111D91429241524277
:101C4000A4180A0023024BD501220024002550E6E7
:101C500080231B031C4209D01E4207D133431C03BF
:101C600043461500240B254A019342E680221203C5
:101C700014432403214A240B01973AE600F060FD47
:101C800001000200153120321C2900DC4BE7340032
:101C900008380025844050E700F052FD03001A0088
:101CA000153220301C2A00DC1EE75646083B002275
:101CB0009E4023E7009B9C46E6E6124922006144D1
:101CC0002E008D408A40C640691E8D4132432A4312
:101CD000C4405307B6D00F2111400429ACD1B1E75D
:101CE00065076402240BD2081543002201E6802216
:101CF000120314432403014A240BFAE5FF070000F2
:101D00003E0400001E040000F8B557464E46454606
:101D1000DE46E0B51E0017004A000B03520D5B0AB9
:101D20009046420F1A43CD0FCD4C3103C300944669
:101D300070007A0F490AFF009A46B946400DF60F27
:101D40001143A04200D1B1E001225640B346B54252
:101D500000D188E04246121A002A00DCAEE00028DA
:101D600000D1C1E0BE48804500D151E1802000048F
:101D70000143382A00DD7BE11F2A00DDEEE120204F
:101D80003E00801A0C00D640D14087406246844015
:101D9000521A781E8741944634432743DC1BA342E2
:101DA0009B4162465B42D31A99464B461B0200D4C4
:101DB00018E14B465802430A99464B46002B00D186
:101DC00037E1484600F0BCFC01000839202322001E
:101DD00048465B1ADA4088408C40434610438845A9
:101DE00000DD36E1C91A4B1C1F2B00DDEAE0202282
:101DF0002600D21A01009440DE40D84000239140D2
:101E0000621E94418146984631430C43630709D0D2
:101E10000F232340042B05D0231DA342A441644279
:101E2000A1441C004B461B0200D4DEE041468C4B13
:101E30000131994200D1E7E04B468A48E40803406B
:101E4000180049055B07400223434A0D040B1205A5
:101E5000ED0722432A4318001100F0BCBB46B246EE
:101E6000A946A046F8BD4246121A002A52DD0028B3
:101E700000D19CE0A04500D1CAE0802000040143CD
:101E8000382A00DD49E11F2A00DC97E110000E002E
:101E90002038C640202A04D04020821A91400F43A7
:101EA000B9464C46621E944134433AE10A003A4333
:101EB00028D0B346B5422BD06B4A4244002A5DD0AD
:101EC00042464446821A002C00D0F5E065461D4388
:101ED00000D19CE1551E012A00D1FBE1604CA242D9
:101EE00000D1BDE12A00F0E00800384300D1C3E092
:101EF000501E012A00D1A8E1594CA24200D187E02E
:101F0000020036E701225640B346B54200D021E731
:101F1000554A4244002A00D1B5E042464446821A5E
:101F2000002C00D138E14E4EB04200D1DEE18026D7
:101F3000644636043443A446382A00DD96E11F2A5D
:101F400000DD24E22026B41AA24664465646B44078
:101F5000A1461C004E46D440264334005646B340AA
:101F60005E1EB3411C436346D340C918E419BC420A
:101F7000BF417F42B94680468944D8E040463B4C49
:101F80000130204200D0B4E04046002800D044E1B7
:101F90006046184300D190E10800384300D0AAE120
:101FA0006146DB0849070B436146CC0827E008007F
:101FB000384361D0501E012A00D139E1A24227D016
:101FC00002005DE702001F39CA401100202B03D038
:101FD0004022D31A98400443631E9C410023994633
:101FE00098460C43630700D012E74B464A46E40884
:101FF0005B072343D408424619498A420ED0240382
:102000005205240B520D22E70A00002400231EE78C
:10201000DB086246520713436246D4081A00224383
:1020200000D1FCE180221203144324030C4A240B48
:102030000DE7200000F084FB010018311F2900DCAF
:10204000C4E608388440434620000024884500DC6C
:10205000C8E6044A5B1A104098468146D6E6C04658
:10206000FF070000FFFF7FFF01F8FFFFFE070000F2
:102070000F437A1E974191E66146DB0849070B43FF
:102080006146CC08B8E74046D34C0130204200D02E
:10209000A2E04046002800D001E16046184300D18C
:1020A0005EE10800384300D05FE16146DB08490784
:1020B0000B436146CC08A2E7C84DA84200D1CFE04F
:1020C000802564462D042C43A446382A56DC1F2A5A
:1020D00000DDD1E020251E00AD1A6446AB40AC40C7
:1020E000D6405D1EAB41344323436446D440091BB4
:1020F00049E06046DC1B461AA342804140428146CB
:1021000030004E46801B8146000276D44B46234366
:1021100000D052E60024002571E739430C00621E0E
:102120009441E4189C429B415B42634499464B4670
:102130001B0200D456E701239C46A84BE044984577
:1021400038D04B46A64801220340180063081440CB
:102150001C43C3071C434308994657E610000E0072
:102160002038C640202A04D04020821A91400F43D4
:10217000B9464F467A1E974137430FE662461A43E7
:1021800013005A1E9341FC1AA742BF417F42CB1B4A
:1021900099465D46804608E666461E4300D1BEE08D
:1021A000561E012A00D109E18C4CA24200D119E14E
:1021B0003200C1E642460024002348E620200C00FD
:1021C000801A3E0087408440D640781E8741D14027
:1021D00034433C438C44A4E7804A904200D1E9E078
:1021E000DF199F429B4161445B42C918CC077F08BD
:1021F0004B08994680463C43F4E6FC1AA742BF418F
:1022000063467F42C91ACB1B99465D46D5E5FF0858
:102210004B075D463B43CC08EEE662461A4300D0CE
:1022200082E00B003B431BD1802400252403F9E608
:10223000DC199C429B41614489465B4299444B4670
:102240001B0244D401239846CCE6DC1B6246A34221
:102250009B41511A5B42CB1A994601239846A4E54B
:10226000FF084B075D463B43CC08D7E662461A435E
:102270001400631E9C4179E615006446203DEC4045
:10228000A046202A05D040256446AA1A944023433C
:102290009A465446631E9C414346234373E7624675
:1022A0001A4323D00A003A4300D0A0E06246DB087C
:1022B000520713436246D408B0E60B003B4300D1FB
:1022C00028E7FF084B075D463B43CC0897E602230F
:1022D000984636E7FC1AA742BF4163467F42C91AB7
:1022E000CB1B994601235D4698465EE54B07FF08E8
:1022F0003B43CC0892E6DC1B6046A342B641401A41
:102300007642801B8146000260D5FC1AA742BF417D
:1023100063467F42C91ACB1B99465D4676E5FF08A6
:102320004B073B43CC0867E60A00DB083A4300D181
:102330006FE66246520713436246D40880221203B6
:10234000144207D0C808104204D15D460400FB08BF
:1023500049070B435A0FDB00DB08520713435DE6C6
:102360004B07FF083B43CC0849E6DC199C429B41E4
:10237000614489465B4299444B461B0200D431E6D6
:102380004A46174B1A400123914698462AE6160002
:102390006446203EF440A046202A05D040266446EC
:1023A000B21A944023439A465446631E9C414346C6
:1023B0001C43DBE502000024002348E5DC19BC4295
:1023C000BF41614489467F42B94438E74B462343C5
:1023D00000D19FE606E6C046FE070000FF070000AA
:1023E000FFFF7FFFFF084B073B43CC0816E6624622
:1023F000DB08520713436246D408802212031442BA
:1024000007D0C808104204D15D460400FB08490704
:102410000B435A0FDB005207DB081343FEE5002392
:10242000014A1C0013E5C046FF07000070B50028F4
:1024300016D0C317C5185D40C40F280000F080F9FE
:10244000114A121A0A2816DC03002E0015339E408A
:102450000B23181AC54052052D032D0B530D03E015
:1024600000240023002500261B052B43E4072343FB
:102470003000190070BD0B38854052052D03002631
:102480002D0B530DF0E7C0461E04000070B543004D
:102490004602C40FFE201B0E591C750A08420CD0C0
:1024A000E022920094466D07360B63441B053343CC
:1024B000E40723432800190070BD002B14D1002D20
:1024C0001BD0280000F03CF90A281CDC0B232E004E
:1024D0001B1ADE40030015339D400E4A3603121AC4
:1024E0005205360B530DE1E7002D09D08022360B43
:1024F0001203094B6D071643D8E700230026D5E7E2
:102500000026054BD2E703000B3B9D402E00002523
:10251000E3E7C04689030000FF07000002004B000C
:10252000F0B55B0D0C033D4E640A400F5F1CC90FF4
:102530000443D50037420AD039481E18FE2E16DD56
:10254000FF200024C0052043C9070843F0BD002B2D
:1025500006D12C4326D005229201540AD8B2F1E7C5
:102560002543EDD08020C0030443FF20EAE7002E7E
:102570001BDD9201531E9A41E4006D0F22432A4352
:10258000530748D00F231340042B00D0043280237C
:10259000DB0413403FD0701CFE2ED1D09201540AB0
:1025A000C0B2CFE700200024CCE73200173222DB94
:1025B0008020000420431E24A41B1F2C1DDD0222AA
:1025C0005242961B0200F2401600202C04D0154AFD
:1025D00094466344984005432A00531E9A4132436F
:1025E00000265307CED180241300E40401202340A9
:1025F0002242D3D1B0E70023ADE70B4A94462A002C
:10260000E24014002A0063449A409840551EAA41B3
:1026100002432243E4E733009EE7C046FE07000082
:1026200080FCFFFFA2FCFFFF82FCFFFF00224308AB
:102630008B4274D303098B425FD3030A8B4244D38A
:10264000030B8B4228D3030C8B420DD3FF220902CC
:1026500012BA030C8B4202D31212090265D0030B8B
:102660008B4219D300E0090AC30B8B4201D3CB0381
:10267000C01A5241830B8B4201D38B03C01A5241C3
:10268000430B8B4201D34B03C01A5241030B8B42C5
:1026900001D30B03C01A5241C30A8B4201D3CB02B0
:1026A000C01A5241830A8B4201D38B02C01A524195
:1026B000430A8B4201D34B02C01A5241030A8B4298
:1026C00001D30B02C01A5241CDD2C3098B4201D3B0
:1026D000CB01C01A524183098B4201D38B01C01A2E
:1026E000524143098B4201D34B01C01A52410309A5
:1026F0008B4201D30B01C01A5241C3088B4201D354
:10270000CB00C01A524183088B4201D38B00C01A00
:10271000524143088B4201D34B00C01A5241411A27
:1027200000D20146524110467047FFE701B5002034
:10273000FEF76EFC02BDC0460029F7D076E7704771
:102740001C2101231B04984201D3000C10391B0AE1
:10275000984201D3000A08391B09984201D30009A5
:10276000043902A2105C40187047C04604030202FC
:102770000101010100000000000000000023C25C14
:102780000133002AFBD1581E704702780B78002ACB
:1027900003D0013001319A42F7D0D01A70470000BF
:1027A00002B4714649084900095C49008E4402BCE4
:1027B0007047C04603B47146490840004900095EAD
:1027C00049008E4403BC70478446100062468C4624
:1027D0001900634600E0C0461FB500F017FC002852
:1027E00001D40021C8421FBD10B500F067FB404274
:1027F000013010BD10B500F009FC002801DB0020FD
:1028000010BD012010BDC04610B500F0FFFB002830
:1028100001DD002010BD012010BDC04610B500F044
:102820008FFB002801DC002010BD012010BDC04638
:1028300010B500F085FB002801DA002010BD012052
:1028400010BDC046F0B54F464646D6460D000400C2
:10285000C0B51F0011002803620F400A10437A0020
:10286000520DE3003C039146640AFA0F4F0F6E00CD
:1028700027439246B846760DED0FC900954200D128
:1028800099E04C46341BA446002C00DC7CE04A4610
:10289000002A00D1B8E0C54A964200D11CE180224E
:1028A0003C0012041443A0466246382A00DD61E170
:1028B0001F2A00DDCCE164462022121B44469440CE
:1028C0000F00A14664469140E7404C464A1E9141A4
:1028D0003C43424621436446E240801A5C1AA342CC
:1028E0009B415F42C71B3B0200D4D0E07F027F0ABE
:1028F000002F00D1FFE03800FFF722FF0100083968
:10290000202322005B1A8F40DA408C401743B142EB
:1029100000DAFFE0891B4B1C1F2B00DDA8E0202202
:102920003900D21A200094409140D840621E944150
:10293000DF40002601430C43630709D00F232340E7
:10294000042B05D0231DA342A44164423F191C005F
:102950003B0200D49EE0954B01369E4200D1B7E089
:10296000934AE40817407B0771057F0223433F0B1E
:102970004A0D12053A43ED072A4318001100E0BC46
:10298000BA46B146A846F0BD002C4BD04C46A41B1D
:10299000A446002E00D023E104001C4300D1AFE187
:1029A0006246541E012A00D115E2804DAC4500D18B
:1029B000C8E1A4461BE14A46B21A9446002A00DC4C
:1029C000ACE04A46002A43D0784A964200D1AFE1B3
:1029D00080223C0012041443A0466246382A67DC79
:1029E0001F2A00DC5FE14746203AD7406246202A92
:1029F00005D064464022121B4446944021434A1E9F
:102A000091410C003C4357E03A000A4300D105E1F4
:102A10002200013A012C00D182E1644CA4455BD034
:102A2000944641E7634C771C274200D0C4E0040081
:102A30001C43002E00D069E1002C00D1BFE14446C8
:102A40000C4300D0D0E14207DB081343C00829E063
:102A50003A000A4300D170E162466446013A012C13
:102A600000D1E0E0514CA44500D161E19446B4E7C7
:102A70003A001F39CA401100202B03D04022D31A3C
:102A80009F403C43631E9C41002700260C43630784
:102A900000D053E7B446E4087B072343F808434AD1
:102AA00094451DD06246070352053F0B520D60E767
:102AB00044460C43621E9441E4189C429B415F4291
:102AC0003F183B02E3D5394B01369E4200D0B5E0BA
:102AD0003200002700234CE74207DB081343C008FD
:102AE0001A00024300D1E1E180273F0307433F037F
:102AF0002E4A3F0B3DE72000FFF722FE0100183170
:102B00001F2900DCFCE60838844027000024B1427D
:102B100000DBFFE6264A761A17400DE7002A2FD081
:102B20004A46921B9446002E00D1ADE01F4A9145C3
:102B300000D10FE18022120410436246382A00DDE2
:102B40000FE11F2A00DD80E1644620221E00121BD7
:102B50006746040093409440FE405A1E9341F8405B
:102B600034431C43804464188C42BF417F424E462C
:102B70004744A6E742460A4311004A1E9141ADE68A
:102B80000C4C721C224200D0A1E002001A43002E1D
:102B900000D0FAE0002A00D145E13A000A4300D013
:102BA00046E14207DB081343C0087BE7FF0700004C
:102BB000FFFF7FFFFE07000047465C1AC21BA342CF
:102BC000BF417F42B94617004A46BF1A3A0200D5B4
:102BD0008DE023003B4300D08AE60020002561E71A
:102BE000B44CA14500D1ADE08024240420436446C8
:102BF000382C3DDC62461F2C00DDB7E020251E008E
:102C00002D1B0400AB40AC40D640D04042465D1E78
:102C1000AB413443121A904623432CE04207DB08B1
:102C20001343C0083BE75C189C429B4140445B4215
:102C3000C71801263B0200D429E702269E4A6308F2
:102C40001740012214401C43FB071C437F0873E616
:102C50004446203AD4406246202A05D067464022A6
:102C6000D21B4746974039434A1E9141214335E6DE
:102C70000343581E8341CC1AA142BF4143467F42C1
:102C800055464E46DF1B2EE602001A4300D1BDE03A
:102C900062466446013A012C00D1E5E0854CA4452A
:102CA00058D0944649E764462022121B444694407B
:102CB0000F00A14664469140E7404C464A1E9141B0
:102CC0003C4342460C436146CA408018F4E6794CC6
:102CD000A24200D1FDE6591899429B4140445F420F
:102CE000C719FC07490816000C437F08CFE6CC1A29
:102CF000A142BF4143467F42181A5546C71BF7E51C
:102D0000C9087B0755460B43F808C8E6002C00D0DD
:102D100081E043460B4315D1802000250003E3E604
:102D20005C1AA3429B41C71B5B420126FF1ADAE5EE
:102D30004207DB081343C008D2E64207DB0813430F
:102D4000C008ACE643464246C9085B0755460B43FC
:102D5000D008C5E6434642465B07C9080B43D00886
:102D6000BEE603431C00631E9C41FCE60200203CBF
:102D7000E24014006246202A03D04025AD1AA84044
:102D80000343581E8341234375E7002AE2D03A00EB
:102D90000A43CDD04207DB0813438022C008120348
:102DA000104206D0FC08144203D12000CB087A0759
:102DB00013435A0FDB005207DB08134390E64346E8
:102DC0000B4300D109E743464246C9085B07554615
:102DD0000B43D00866E6CC1AA14289413F1A49420A
:102DE000554601267F1A7EE542465C1A871AA342A1
:102DF00092415242BF1A3A023DD5CC1AA1428941B2
:102E0000434649421F1A55467F1A95E57B07C90874
:102E10000B43F80843E64446DB080C4330D1420735
:102E20001343C0085CE67B07C9080B43F80839E682
:102E30005C189C429B4140445B42C7183B0200D453
:102E400025E61D4B01261F4021E60400203AD44010
:102E50006246202A04D040226646921B90400343DB
:102E60005A1E93411C437EE65C188C4289414044C3
:102E700049424718DDE623003B4300D1ADE606E6B4
:102E8000440723438024C0082403204208D042463C
:102E9000D608264204D155463000CB0851070B43D3
:102EA0005A0FDB00DB085207134319E60023014ADF
:102EB0001F005EE5FF070000FFFF7FFFF0B54E46F5
:102EC0004546DE4657469046E0B517001A03120BFA
:102ED0000500844619480E034C0091465A00DB0F4A
:102EE0009B46360B640DC90F520D844219D08242A5
:102EF00010D0012094420ED14E450CD10120C44582
:102F000009D1594517D0002C05D130002843431E64
:102F1000984100E00120F0BCBB46B246A946A0465D
:102F2000F0BD330001202B43F5D1A242F3D14B4633
:102F30003B43F0D1E2E70020EDE7C046FF07000089
:102F4000F0B54746CE460400180016001B031B0BC5
:102F50002D4D4A00994680B543000F03A446B04664
:102F60003F0B520DC90F5B0DC00FAA4221D0AB42DF
:102F700013D0002A22D13C43002B02D14D462E43D0
:102F800022D0002C10D0814222D0022001390840EA
:102F90000138C0BCB946B046F0BD4D462E4329D1DC
:102FA000002AF0D13C43EED10028F2D1012040426A
:102FB000EFE73D0025431DD19342EED0002BE2D137
:102FC0004C462643DFD1E0E70020002CE1D0DCE7CF
:102FD0009A420ADCE8DB4F45D7D80ED000204F4597
:102FE000D7D20029E2D00800D3E74342584140003D
:102FF0000138CEE702204042CBE7C445C5D80020C7
:10300000C445C6D2EDE7C046FF070000F0B547460D
:10301000CE460400180016001B031B0B2C4D4A0063
:10302000994680B543000F03A446B0463F0B520DAE
:10303000C90F5B0DC00FAA420DD0AB4210D0002AC1
:1030400027D13C43002B11D14D462E430ED10020F9
:10305000002C15D00EE03D00254310D1934218D12D
:103060004D462E430BD1002A02D13C43002C0BD0FD
:10307000814214D0022001390840013800E00220CA
:10308000C0BCB946B046F0BD0028F9D1012040428D
:10309000F6E7002BECD14C462643E9D1EAE79A4209
:1030A00004DD4342584140000138E9E79A42EBDB36
:1030B0004F45DFD806D000204F45E1D20029E5D0AA
:1030C0000800DDE7C445D5D80020C445D8D2F5E7CF
:1030D000FF07000070B505000C481C0316005B00DC
:1030E0000A034900120B490D240B5B0D814208D0E5
:1030F000064A0020934203D120003043431E9841EA
:1031000070BD01202A43FBD1F2E7C046FF07000053
:103110000A0030B5134C530009030500090B0020C9
:103120005B0DD20FA34204DD0F48834202DD0F4B3B
:10313000D01830BD8020400301430D48C01A1F281D
:1031400008DD0C48C31AD9400B005842002AF0D1C0
:103150001800EEE7084CC540A446634499400B00B4
:103160002B43F2E7FE0300001D040000FFFFFF7F7A
:103170003304000013040000EDFBFFFF10B5041E34
:1031800010D0FFF7DDFA0F4B1B1A0A2811DC0B22B7
:103190002100121AD14015300A035B058440120B3E
:1031A0005B0D01E0002300221B05134320001900E2
:1031B00010BD22000B3882405B0512030024120B65
:1031C0005B0DF1E71E040000F0B51E0000231400A3
:1031D0008BB09E4204DA8021090673181E002D234D
:1031E000129A149F1370202303229F43462F07D067
:1031F0003B00453B59424B411099013ACB18109383
:1032000009AB049308AB0393139B00920293109BAA
:1032100022000193330000F0AFFD0500472F02D1DB
:10322000119BDB0728D5109BEB180793462F14D171
:103230002B78302B0CD10022002320003100FFF727
:10324000D3FA002804D10123109A9B1A139A136011
:10325000139B079A1B68D3180793002200232000B2
:103260003100FFF7C1FA002801D0079B09933022F3
:10327000099B07998B4206D32800099B159A5B1B73
:1032800013600BB0F0BD591C09911A70F0E7F0B54E
:10329000831C87B0039305000C002B2302700029C8
:1032A00001DA4C4202336B70092C31DD0A2704AB82
:1032B000DE1D200039000196FDF7A6FE013E3031EB
:1032C0002000317039000294FDF7B8FD029B040024
:1032D000632BEEDC019B30349A1E130003991470AB
:1032E00004A8073098420ED804AB073300209A4256
:1032F00004D804AB0930C018019BC01A039B1818EE
:10330000401B07B0F0BD1878013308700131E7E7C2
:103310003023E418AB70281DEC70F1E7F0B595B0E0
:103320000C0009921E001A9D070001F09BFC036827
:1033300018000C93FFF722FA00231293237E072232
:103340000A9323680E900D930D992B68C90547D5F4
:103350009B1893431A0008322A601A685B68A264BB
:10336000E3640122A36CE56C0B936B005B080F9385
:103370000B98A74B0F995242FFF7ACFE002831D1B2
:103380000122A34B0B980F995242FFF73DFA0028F8
:1033900028D10022002329000B98FFF72BFA0028E0
:1033A00003D023002D2243331A700A9B994D472BDB
:1033B00000D9994D03230D9A236101339A430023C9
:1033C00022600B93099B21003800009613AA00F09D
:1033D000E7F9431C00D0A2E00120404215B0F0BD47
:1033E0000733B6E70B9A2B0010002900FFF772FE97
:1033F00000280BD0002D03DA23002D2243331A704E
:103400000A9B864D472BD5D9854DD3E720220A99B3
:10341000636891430F915A1C49D10733636080233D
:103420000D9ADB0013430022069212AA05920A9A13
:1034300008A9049211AA03922322236001936368CE
:1034400052180292009338002B000B9AFFF7BCFE33
:103450000F9B05001199472B08D1CB1C02DB636839
:10346000994248DD0A9B023BDBB20A930A9B652B1B
:1034700024D820001A00013950301191FFF707FFBE
:10348000129A0B9013182361012A02DC2268D207DA
:1034900001D501332361232308AA9B181B78002B35
:1034A00000D18FE723002D2243331A708AE70F9A49
:1034B000472AB4D1002BB2D10133AFE70A9B662B68
:1034C0001BD1636800290DDD2161002B02D1226828
:1034D000D20702D5013359182161119BA36500233E
:1034E0000B93D8E7002B03D101222168114200D0B1
:1034F0009A1C2261F1E767230A93119B129A934267
:1035000006DB22682361D207E7D501332361E4E7B4
:103510000121002B01DC4918C91A5218E9E7226879
:10352000530507D423692A0038000999B047431C82
:1035300028D151E70A9B652B00D8E1E0A06CE16C33
:1035400000220023FFF750F9002831D00123380072
:10355000344A0999B047431C00D13DE7119B129AA8
:10356000934202DB2368DB070CD538000E9B0C9AD4
:103570000999B0470025431C00D12DE7129B013B60
:10358000AB420ADC23689B0700D506E1139BE06889
:10359000984200DB22E7180020E7220001233800D0
:1035A00009991A32B047431C00D115E70135E5E708
:1035B000119B002B38DC012338001A4A0999B047C7
:1035C000431C00D108E7119B129A134302D12368D0
:1035D000DB07D7D50E9B38000C9A0999B047431CDE
:1035E00000D1F9E600230A93119B0A9A5B429342A9
:1035F00001DC129B97E722000123380009991A3257
:10360000B047431C00D1E7E60A9B0133EBE7C04615
:10361000FFFFEF7FB06D0000B46D0000B86D0000DB
:10362000BC6D0000C06D0000129AA36D0A929A4210
:1036300000DD0A930A9B002B3CDC00230D930A9BC0
:10364000DB43DB170F93A36D0F9A0B930A9B134079
:103650000B9AD31A0D9A934234DC119B129A93421F
:103660003DDB2368DB073AD4129A0B9B1199D31ADE
:10367000521A0A929A4200DD0A930A9B002B36DC0A
:103680000A9B0025DB43DB170B93119A129B0B99C6
:103690009B1A0A9A0A409B1AAB4200DC72E722008E
:1036A0000123380009991A32B047431C00D193E630
:1036B0000135EAE70A9B2A0038000999B047431C04
:1036C000BBD189E622000123380009991A32B0479C
:1036D000431C00D180E60D9B01330D93B3E70E9B95
:1036E00038000C9A0999B047431CBDD174E60B9B76
:1036F0003800EA1809990A9BB047431CC0D16BE611
:10370000129B012B02DC01231A4234D001232A0030
:1037100038000999B047431C00D15DE60E9B380084
:103720000C9A0999B047431C00D155E6A06CE16C96
:1037300000220023FFF758F800281AD1129B6A1CB8
:10374000013B38000999B047431C0ED144E62200E2
:103750000123380009991A32B047431C00D13BE6D7
:103760000135129B013BAB42F1DC22000B9B503236
:10377000DAE60025F5E72A00E3E722000123380016
:1037800009991932B047431C00D125E60135E36899
:10379000139A9B1AAB42F0DCF8E60025F7E7C04627
:1037A000F7B5150001938A680B690C0000909342ED
:1037B00000DA130022002B6043321278002A01D075
:1037C00001332B6023689B0602D52B6802332B60E4
:1037D0002268062317001F401A4227D023004333D4
:1037E0001B785A1E93412268920630D42200019918
:1037F0000098089E4332B047431C25D0062320681A
:103800002A68E16800250340042B03D18D1AEB439D
:10381000DB171D40A3682269934201DD9B1AED1856
:103820000027BD4220D1002010E00137E3682A685C
:103830009B1ABB42D2DD2200012301990098089E09
:103840001932B047431CF0D101204042FEBD302068
:10385000E1184331087021005A1C45310978A2183B
:10386000433202331170C1E722000123019900980D
:10387000089E1A32B047431CE6D00137D1E700005A
:10388000F0B58BB006920A0043320793059004927C
:103890000A7E0C00109B782A07D8622A09D8002AD1
:1038A00000D1C1E0582A00D18CE0260042363270A7
:1038B00022E0100063381528F7D8FEF77BFF1600CA
:1038C0001F00F6FFF6FFF6FFF6FF1F00F6FFF6FFFC
:1038D000F6FFF6FFA80036009A00F6FFF6FFB900E3
:1038E000F6FF3600F6FFF6FF9E0026001A68423605
:1038F000111D1960136833700123A7E00868196867
:103900000A1D05060BD50D681A60002D03DA2D235C
:10391000049A6D421370614B0A2703931BE00D68F4
:103920001A604106F1D52DB2EFE70D681968081D40
:1039300018602E0601D50D6803E06D06FBD50D68F5
:10394000ADB2564B082703936F2A00D002372300ED
:10395000002243331A706368A360002B03DB042248
:10396000216891432160002D02D1049E002B0CD0D0
:10397000049E28003900FEF7DFFE039B013E5B5CDE
:1039800033702B0005009F42F3D9082F09D123681B
:10399000DB0706D563682269934202DC3023013ECF
:1039A0003370049B9B1B2361079B210000930598A8
:1039B000069B09AAFFF7F4FE431C4CD101204042AC
:1039C0000BB0F0BD45310A70344A03921A68216881
:1039D00020CA1A60080616D5CB0702D52023194342
:1039E00021601027002DB2D1202322689A43226043
:1039F000ADE7202209680A4322602200782145327F
:103A00001170274AE1E74806E6D5ADB2E4E71A6847
:103A10000D68101D4969186013682E0601D51960DC
:103A200002E06D06FBD519800023049E2361BBE7ED
:103A30001A68111D1960166800213000626801F0D3
:103A400039F9002801D0801B60606368236100237E
:103A5000049A1370A8E72369320006990598079D18
:103A6000A847431CAAD023689B0715D4099BE0688C
:103A70009842A5DA1800A3E72200012306990598C9
:103A8000079E1932B047431C98D00135E368099A64
:103A90009B1AAB42F0DCE9E70025F7E7C26D0000B6
:103AA000D36D00000EB417B5041E04D08369002B3B
:103AB00001D100F0FDFF06AB2000059AA16801933B
:103AC00002F01EF91EBC08BC03B018470FB40B4B24
:103AD00013B51C68002C05D0A369002B02D120006F
:103AE00000F0E6FF05AB2000049AA168019302F004
:103AF00007F916BC08BC04B01847C0460400001003
:103B000070B50D0009680400002901D0FFF7F8FF27
:103B10002900200001F0FAFD70BD0000314B70B5A6
:103B20001B680400834249D0436A002B0AD0002559
:103B3000DB68AB4247D1636A1968002902D02000D4
:103B400001F0E4FD6169002902D0200001F0DEFDF2
:103B5000616A002902D0200001F0D8FDA16B002984
:103B600002D0200001F0D2FDE16B002902D020003C
:103B700001F0CCFD216C002902D0200001F0C6FD2F
:103B8000E16D002902D0200001F0C0FDA16D0029E7
:103B900002D0200001F0BAFD616B002902D02000A4
:103BA00001F0B4FDA369002B08D02000A36A984758
:103BB000A16C002902D02000FFF7A2FF70BD495977
:103BC000002908D10435636AD968802DF7D1200017
:103BD00001F09CFDAFE70E68200001F097FD310079
:103BE000EEE7C046040000100CB400B59DB0029191
:103BF000069109491EAB07910491084904CB059130
:103C000002A9019301F046FF0023029A13701DB030
:103C100008BC02B01847C046FFFFFF7F0802FFFF45
:103C20000EB400B50B499CB01DAB029006900791F5
:103C300004910948094904CB0591006802A9019340
:103C400001F028FF0023029A13701CB008BC03B0D7
:103C50001847C046FFFFFF7F040000100802FFFF67
:103C6000F0B506000B69326987B0002003919A42D3
:103C700065DB013B9C0000930B00143305931B197B
:103C800004933300143302931C19049B27681B68A8
:103C900038005D1C29000193FEF7C8FC0190AF427B
:103CA00024D30025AC460298059F08CF019A99B20B
:103CB00051431B0C534349190A0C9B18026889B2E3
:103CC00092B26244521A01681D0C090C9BB2CB1AC5
:103CD00011145B18191492B21B041A43049B8C46EE
:103CE00004C0BB42E1D22368002B30D030000399DE
:103CF00001F0CCFA002821DB30000024019B03995D
:103D00000133019314301431036820C99AB2141995
:103D1000AAB2A21A1B0C2D0C14145B1B1B191C1429
:103D200092B21B04134308C0049B8B42ECD2009B4D
:103D3000029A9B00D3181A68002A15D0019807B080
:103D4000F0BD2368002B06D1009B013B0093029B32
:103D5000043CA342F5D3009B3361C7E71A68002AED
:103D600006D1009A013A0092029A043B9A42F5D396
:103D7000009B3361E2E70000F0B59DB0029203932F
:103D8000029B039C08930994446A0700259D002C1C
:103D90000ED1102000F07AFF021E786204D1EA21D1
:103DA000C74BC84802F03EFA446084600460C460B7
:103DB0007B6A196800290AD05A68012393404A6037
:103DC0008B60380000F0D6FF00227B6A1A60039BEC
:103DD000002B20DA01232B60039B5B005B08099317
:103DE000099DB94BB84A2B40934217D1B74B249A3F
:103DF00028031360029B000B184301D100F0BFFDA4
:103E0000B348269B0690002B02D0B24B269A136033
:103E100006981DB0F0BD00232B60E1E7089B099CCC
:103E2000129313941298139900220023FEF7DCFCDE
:103E3000041E09D00123249A1360A74B0693269BE6
:103E4000002BE5D0A54BE1E71AAB01931BAB009328
:103E50003800129A139B01F041FB6E000590760D1D
:103E600000D17CE012981399139B9D4A1B031B0BF6
:103E70001A4311009B4B1894F61800229A4BFDF739
:103E800043FF9A4A9A4BFDF7D3FC9A4A9A4BFEF7A6
:103E9000D9FC040030000D00FEF7C8FA974A984B91
:103EA000FDF7C6FC02000B0020002900FEF7CAFC4B
:103EB00004000D00FFF72CF90022029000232000DF
:103EC0002900FEF797FC00280BD00298FEF7AEFA07
:103ED0002B002200FEF788FC43425841029B1B1A2C
:103EE000029301231693029B162B0FD81298139955
:103EF000DA00844B9B181A685B68FEF77BFC00288D
:103F000049D0029B013B0293002316931A9B9E1BF0
:103F100000230A933300013B0D9304D501239B1B1F
:103F20000A9300230D93029B002B36DB029A0D9B14
:103F3000944663440D93002315920E93229B012413
:103F4000092B64D8052B02DD0024043B2293229B1D
:103F5000981E032864D8FEF723FC293836581A9B8C
:103F60001B9A9E18684BF218202A0FDD40239B1ADB
:103F70009D40664B0298F318D8402843FFF7FEF89F
:103F80000123634C013E0919189376E72023029818
:103F90009B1A9840F2E71690B8E70A9B029A9B1A80
:103FA0000A9353420E9300231593C7E700230F9300
:103FB000239B0C930793002B13DC01231A000C9313
:103FC000079323920DE00123F1E70023239A0F9337
:103FD0009446029B63440C9301330793002B00DC4F
:103FE00001230022786A42600432150014354168CA
:103FF0009D4219D9380000F079FE0690002817D1AB
:10400000D5210200434B4900CBE60123DEE7002324
:104010000F942293013B0C93079300221333D0E7B4
:1040200001230F93023BF6E7013141605200DCE7C8
:104030007B6A069A1A60079B0E2B00D9EBE0002CD6
:1040400000D1E8E0029B002B68DD1A000F212D4B08
:104050000A40D2009B181D685E68029B1C11022357
:104060001093029BDB050BD52B4B0C401A6A5B6A45
:1040700012981399FDF7E6F803230890099110931D
:10408000254B1493002C08D1089809992A00330075
:10409000FDF7D8F8089009915CE001231C420BD091
:1040A000109B280001331093149B31001A685B6841
:1040B000FDF7BEFB05000E00149B64100833E0E71B
:1040C000F16D0000086E00000000F07F0F27000077
:1040D000ED6D0000F06D0000C06D0000C16D0000CE
:1040E0000000F03F01FCFFFF0000F83F61436F63F9
:1040F000A787D23FB3C8608B288AC63FFB799F5001
:104100001344D33FA86F00003204000012040000E3
:10411000000010FE866E0000806F000002231093E6
:10412000029B002B16D0129813995C420F23B64ABB
:104130002340DB00D3181A685B68FDF779FB012682
:10414000002308900991B14D2411002C00D094E077
:10415000002B9FD1169B002B00D19BE0089C099D52
:10416000002220002900AA4BFEF744FB002800D1C2
:1041700090E0079B002B00D18CE00C9B002B46DDD0
:10418000029B0022200029005E1EA24BFDF750FB7F
:10419000109B08900991013310930C9B1098089C78
:1041A000099D1493FEF742F922002B00FDF740FB16
:1041B0000022994BFEF746FB10901191109A119B2B
:1041C00008920993954A119B944663441793099367
:1041D000149B002B61D1002220002900904BFDF799
:1041E00093FD089A179B04000D00FEF717FB0028AB
:1041F00000D0AFE28B481199844661440B00200047
:104200002900089AFEF7F6FA002800D09FE2129BD8
:10421000139C089309941B9B002B00DA72E1029A0D
:104220000E2A00DD6EE1784BD2009B185C681B689B
:104230000A930B94239B002B00DBF7E0079B002BDA
:1042400000DDF3E000D082E20A980B990022744B63
:10425000FDF7EEFA089A099BFEF7EAFA079E350089
:10426000002800D059E2069B069A013308933123B7
:104270001370029B0133029354E2344207D0109B27
:10428000013310932A686B68FDF7D2FA330064108B
:1042900008355AE7029E079B80E7149B0F995A1E28
:1042A000594BD2009B181A685B68002951D0002036
:1042B0005D49FCF7C7FF089A099BFDF725FD069AA3
:1042C000069B94461793149B109011916344199385
:1042D00029002000FEF71CFF1490FEF7A7F802004B
:1042E0000B0020002900FDF70FFD179B179A0133E3
:1042F0000893149B040030331370109A119B0D0027
:10430000FEF778FA002875D122002B0000204049E2
:10431000FDF7FAFC109A119BFEF76CFA002800D00A
:10432000D2E0199B089A934200D170E71098119936
:104330000022384BFDF77CFA364B10901191002289
:1043400020002900FDF774FA089B04000D00179364
:10435000BEE708980999FDF76BFA069A069B944602
:104360000893149B10901191634419932900200025
:10437000FEF7CEFE1790FEF759F802000B00200062
:104380002900FDF7C1FC179B089A30331370130006
:10439000199A013304000D00089393422CD1109810
:1043A0001199069A149B94466344002208931E4B6D
:1043B000FEF748FA02000B0020002900FEF72EFA53
:1043C000002800D080E0109A119B00201649FDF7CC
:1043D0009BFC02000B0020002900FEF70BFA0028CE
:1043E00000D114E7089B1A00013A08921278302A8B
:1043F000F8D00893029655E00022064BFDF718FA14
:1044000004000D00B2E7C046A86F0000806F0000F6
:104410000000F03F0000244000001C400000C0FCF1
:10442000000014400000C07C0000E03F079B069E97
:10443000013B9B190C93089C099D0A9A0B9B200039
:104440002900FCF7FFFEFEF763FE0790FDF7EEFF85
:104450000A9A0B9BFDF7ECF902000B0020002900E3
:10446000FDF752FC3300079A013630321A700C9A6D
:1044700008969A4239D102000B00FEF7E3F90A9A36
:104480000B9B04000D00FEF7C9F900281BD10A9A06
:104490000B9B20002900FEF7A7F9002802D0079BFC
:1044A000DB0710D43800059900F064FC0023089A5B
:1044B00002981370249B01301860269B002B00D1BA
:1044C000A6E41A60A4E4029E089B0893013B1A78B4
:1044D000392A06D1069A9A42F7D130220699013636
:1044E0000A701A7801321A7084E70022AA4BFDF78D
:1044F0009FF90022002304000D00FEF775F9002843
:104500009BD0CFE70F9D0E9E0A9C002D12D0229AC1
:10451000012A66DC189A002A5DD0A04A9B180A9AE4
:104520000121D2180A920D9A3800D3180D9300F089
:104530001DFD0500002C0EDD0D9B002B0BDD0D9AE3
:104540002300944200DD13000A9AE41AD21A0A9258
:104550000D9AD31A0D930E9B002B1FD00F9B002B8F
:1045600054D0002E11DD29003200380000F0C4FDC7
:10457000059A01000500380000F00EFD0599149021
:10458000380000F0F7FB149B05930E9B9A1BB34277
:1045900004D03800059900F0AFFD059001213800E6
:1045A00000F0E4FC159B0600002B31DD1A00010031
:1045B000380000F0A1FD229B0600012B2DDD002319
:1045C0000E93336903339B00F318586800F086FCA0
:1045D0002023181A39E036231A9A0E9E0A9C9B1A39
:1045E0009DE7079B5E1E0E9BB34207DB9E1B079B4E
:1045F0000A9C002B93DAE41A002390E70E9B159A8D
:10460000F31AD3180E9615930026F0E70E9AC0E71A
:1046100000230E93229B012B13DC00230E93089B97
:10462000002B0ED1099B1B030BD15D4B099A134242
:1046300007D00A9B01330A930D9B01330D9301238D
:104640000E93159B0120002BBBD10D9B1F22181828
:1046500003001340104246D00132D21A042A3FDD33
:104660001C22D31A0A9AE418D2180A920D9AD31867
:104670000D930A9B002B05DD1A003800059900F008
:1046800097FD05900D9B002B05DD31001A003800C9
:1046900000F08EFD0600169B002B26D031000598F9
:1046A00000F0F4FD002820DA029B0A22013B02936D
:1046B00038000023059900F081FB0F9B0590002B2B
:1046C00000D166E1002329000A22380000F076FBC1
:1046D0000C9B0500002B47DC229B022B0DDC43E0EA
:1046E000042AC6D013001C33BCE7079B002B35DC23
:1046F000229B022B32DD079B0C930C9B002B0CD1D1
:1047000031000522380000F059FB06000100059831
:1047100000F0BCFD002800DDA5E5239BDB430293F0
:10472000069B089300243100380000F023FB002D85
:1047300000D1B7E6002C05D0AC4203D021003800F0
:1047400000F018FB2900380000F014FBAAE6002650
:104750003500E2E70296149E350084E50F9B002B9E
:1047600000D1CEE0079B0C93002C05DD2900220030
:10477000380000F01DFD05000E9B2800002B22D004
:104780003800696800F0B2FA041E0FD10200054B30
:104790000549FFF706FBC046000024403304000033
:1047A0000000F07F866E0000EA02000029002B69FD
:1047B0000C319A1C92000C3000F087FA0122210083
:1047C000380000F0F5FC069B0C9A0A93013B9B18FD
:1047D00001222C0005001493089B13400F93310015
:1047E0000598FFF73DFA0300210030330D9005983E
:1047F000079300F04BFD2A000E903100380000F0C6
:1048000061FDC3680890109301230C93109B002B4B
:1048100004D10100059800F039FD0C90380008998A
:1048200000F0A8FA0A9B0C9A01330893229B1343C9
:104830000F9A13430CD1079B392B26D00E9B002BCC
:1048400002DD0D9B313307930A9B079A1A706AE7C2
:104850000E9B002B04DB229A13430F9A13431FD1A4
:104860000C9B002BF0DD05990122380000F0A0FC24
:104870003100059000F00AFD002803DCE4D1079B1D
:10488000DB07E1D5079B392BDBD139230A9A13705B
:10489000089B0893013B1A78392A68D00132D5E782
:1048A0000C9B002B07DD079B392BEED0079B0A9A48
:1048B0000133137037E70A9B079A1A70149B0A9A00
:1048C00093423ED000230A220599380000F076FA80
:1048D000002305900A2221003800AC4206D100F0E6
:1048E0006DFA04000500089B0A9378E700F066FA69
:1048F0002900040000230A22380000F05FFA0500B6
:10490000F1E7079B0C93002431000598FFF7A8F905
:10491000069B303018550C9B01340790A34207DDED
:1049200000230A223800059900F048FA0590EBE7C9
:104930000C9B0120002B00DD18000024069B1B1897
:10494000089305990122380000F032FC31000590EF
:1049500000F09CFC00289BDC02D1079BDB0797D46E
:10496000089B0893013B1A78302AFAD0DBE6069AB6
:104970009A428ED1029B01330293312399E7094B6E
:10498000269A0693084B002A01D0FFF73FFAFFF75B
:104990003FFA0C9B002BB6DC229B022B00DDACE621
:1049A000B1E7C046E46D0000EC6D0000002310B5D7
:1049B0000400036043608360818143661900C28103
:1049C00003614361836108225C3000F087F9054B85
:1049D00024626362044BA362044BE362044B2363CF
:1049E00010BDC046B15F0000DD5F00001560000033
:1049F0004160000010B5024900F011F910BDC04639
:104A0000A9630000436E10B5DB0705D483899B05BD
:104A100002D4806D00F033F9002010BD436E10B554
:104A2000DB0705D483899B0502D4806D00F02DF946
:104A3000002010BD70B568254A1E55430E002900A0
:104A4000743100F0CFFE041E08D000212A0001605E
:104A500046600C30A060683200F040F9200070BD64
:104A600010B5024B1868FFF7C5FF10BDF86E0000C7
:104A700010B5024800F003F910BDC0460202001054
:104A800010B5024800F001F910BDC0460202001046
:104A900010B5024800F0F3F810BDC0460302001044
:104AA00010B5024800F0F1F810BDC0460302001036
:104AB00013B50400FFF7ECFFA369002B02D0FFF74A
:104AC000EFFF13BDA364E3642365134B134A1B6814
:104AD000A2620193A34201D10123A361200000F04F
:104AE0001FF86060200000F01BF8A060200000F0BC
:104AF00017F800220421E0606068FFF757FF0122E9
:104B00000921A068FFF752FF02221221E068FFF797
:104B10004DFF0123A361D2E7F86E0000F5490000C4
:104B2000F8B50700FFF7A4FF1F4B1E68B369002B01
:104B300002D13000FFF7BCFF4836B4687368013B10
:104B400004D53368002B22D03668F6E70C22A55E28
:104B5000002D1AD12000154B5830E360656600F037
:104B60008AF8FFF78DFF2000082229002560A56044
:104B7000656025616561A5615C3000F0AFF8656333
:104B8000A563A564E5642000F8BD6834D7E7042177
:104B90003800FFF74FFF041E3060D5D1FFF770FFDC
:104BA0000C233B60EFE7C046F86E00000100FFFFFA
:104BB00010B5FFF75DFF034B0349186800F014F8C8
:104BC00010BDC04604000010054A000010B5044B9B
:104BD0000449186800F008F8FFF752FF10BDC046FE
:104BE000040000101D4A0000F7B5483004000026FC
:104BF0000191A5686768013F04D52468002CF8D1AD
:104C00003000FEBDAB89012B07D90E22AB5E01330C
:104C100003D02800019B984706436835EBE7F7B5BA
:104C2000040006000027019148346368A5680093DA
:104C3000009B013B009304D52468002CF5D138007B
:104C4000FEBDAB89012B08D90E22AB5E013304D027
:104C500029003000019B984707436835E8E7F030AA
:104C60007047000000487047580100100048704726
:104C70005801001070477047704770477047704781
:104C800001207047012070477047704710B5034BF3
:104C90000100186800F0A6FD10BDC0460400001019
:104CA00010B5034B0100186800F030FD10BDC04680
:104CB00004000010C9B28218904201D10020704750
:104CC00003788B42FBD00130F6E7002310B59A42FF
:104CD00000D110BDCC5CC4540133F8E70300821846
:104CE000934200D1704719700133F9E770B5456AF6
:104CF00006000C00002D0ED11020FFF7C7FF021E8A
:104D0000706204D16621194B194801F08BFA456095
:104D100085600560C560756AEB68002B13D0736A07
:104D2000A200DB689B181868002818D101210D002B
:104D3000A5406A1D3000920000F0BCFC00280CD099
:104D4000446085600DE021220421300000F0B2FCB7
:104D5000736AE860DB68002BE1D1002070BD026857
:104D60001A6000230361C360F8E7C046F16D0000DC
:104D7000FC6E000070B5466A05000C00002E0ED1D6
:104D80001020FFF783FF021E686204D18A21094BBD
:104D9000094801F047FA466086600660C660002C4C
:104DA00007D06B6A6268DB6892009B181A68226001
:104DB0001C6070BDF16D0000FC6E0000F7B50E00C8
:104DC00001900C001D0000200F691436336801307B
:104DD00099B251431B0C534349190D0C5B191D0C1F
:104DE00089B21B045B1808C68742EFDC002D22D075
:104DF000A368BB4219DC63680198591CFFF776FF72
:104E0000061E05D10200B5210C4B0D4801F00AFA2F
:104E1000210023690C319A1C92000C30FFF755FFDA
:104E200021000198FFF7A6FF34003B1D9B00E3180B
:104E30005D607B1C23612000FEBDC046866E0000C5
:104E4000FC6E0000F7B5060018000C0008300921C0
:104E500001931500FBF7F2FF0123002183420ADBD7
:104E60003000FFF743FF011E08D10200194B1A481A
:104E7000CE3101F0D7F95B000131EFE7089B4361C8
:104E800001230361092D18DD230009331F0000935E
:104E900064193B780A223000303BFFF78FFF01375F
:104EA0000100A742F5D12C00009B083C1C192F00E3
:104EB000019B9F4204DB0800FEBD09250A34F6E78A
:104EC000631BDB5D0A223000303BFFF777FF0137C1
:104ED0000100EDE7866E0000FC6E00000300020C8E
:104EE0000020824201D11B0410301A0E01D108307B
:104EF0001B021A0F01D104301B019A0F01D102309D
:104F00009B00002B03DB01305B0000D420207047A6
:104F1000036802000721180008400B420DD0063933
:104F200000200B4205D10230034203D0CB400800E1
:104F3000136070479B081360FBE799B2002901D109
:104F400010201B0CD9B2002901D108301B0A190707
:104F500001D104301B09990701D102309B08D90700
:104F6000E9D401305B08E6D12020E2E710B50C005F
:104F70000121FFF7BBFE002806D1A0210200044B4F
:104F80000448490001F04EF901234461036110BD5A
:104F9000866E0000FC6E0000F0B50B69140012690B
:104FA0000D0089B0934201DA25000C002F692669B3
:104FB0006968BB190293AB68BA19934200DA0131F0
:104FC000FFF794FE0190002806D15E210200484BB5
:104FD0004848FF3101F026F9019B002214339C461A
:104FE000BB199B0063440393634603998B422CD304
:104FF0002B0022001433BF0014320693B600DB19D5
:10500000049393190793042305932B0004991533F4
:105010000092994205D34B1B153B9B0801339B0023
:105020000593079B009A9A4211D3029B002B06DD41
:10503000039B043B03931B680093002B53D0019BFD
:10504000029A18001A6109B0F0BD04C3CDE7009BB5
:105050001B6898B200281BD067460024069E02CE2B
:105060003A688BB2434392B29B181B190C0C444311
:105070003A68110C61181C0C09190C0C9BB209043C
:105080000B4308C7049BB342E9D86346059A9C507A
:10509000009B1B681E0C20D063462C006046002736
:1050A0001B68143422689BB291B271430268120CDF
:1050B0008918CF1939040B43036002CC4368090CEB
:1050C00071439BB23F0CCB18049ADB191F0C0430C0
:1050D000A242E7D8624605995350009B04330093DF
:1050E00004239C449DE7029B013B02939DE7C0463D
:1050F000866E0000FC6E0000F7B503231500070064
:105100000E001A401D4208D02549013A920052581B
:1051100000233100FFF752FE0600AD103DD07C6A3F
:10512000002C0FD11020FFF7B1FD021E786205D1CF
:10513000D7211C4B1C48490001F074F8446084607E
:105140000460C4607B6A9C680193002C08D138001D
:105150001649FFF70BFF019B0400986000230360D2
:1051600001231D420AD0310022003800FFF714FF4E
:10517000310001903800FFF7FDFD019E6D100CD04D
:105180002068002807D1220021003800FFF704FF23
:105190000023206003600400E2E73000FEBDC0464B
:1051A00098700000F16D0000FC6E000071020000BC
:1051B000F0B50C0017002369551187B0EB18029366
:1051C000013301934968A3680490019A934210DB6C
:1051D0000498FFF78BFD002302000600190014322B
:1051E00098420CD1DA210200264B2748FF3101F00A
:1051F00019F801315B00E8E7980011500133AB4228
:10520000FADBEB43DB171D401F2123003800AD0004
:105210005519226914339200084084469A180F42A7
:105220002AD00131091A05910021039567461868B3
:10523000B8400143039802C002CB03900598C140D7
:105240009A42F3D8200015300423824204D3131B62
:10525000153B9B0801339B00E950002902D0029BBB
:1052600002330193019B0498013B21003361FFF756
:1052700081FD300007B0F0BD02CB02C59A42FBD8D9
:10528000F0E7C046866E0000FC6E000002690B6904
:1052900030B50400D01A9A420DD19B001434143159
:1052A000E218C918043A043915680B689D4203D006
:1052B00001209D4203D330BD9442F3D3FBE740422B
:1052C000F9E70000F0B50E0007001100300087B0CC
:1052D0001400FFF7DBFF051E10D101003800FFF7B7
:1052E00005FD021E04D1404B4049414800F09AFFA1
:1052F000012345610361100007B0F0BD0123019354
:10530000002804DB230034001E0000230193380032
:105310006168FFF7EBFC021E03D19021324B89003C
:10532000E3E7019B0027C360206914340194019BCB
:1053300084001B19340002933369143499006318F4
:105340000393130014339C460593019B0493049B21
:1053500002CC20CB0493ABB2DF198BB2FB1A090C41
:105360002D0C6D1A19146D1861462F149BB22D0463
:105370002B4308C1039B8C46A342E8D83100039C11
:10538000153104238C4204D3A31B153B9B08013326
:105390009B000199CC1805992600CB189C460299D0
:1053A0008E4210D3029EE11E00258E4204D33100AE
:1053B00003310C1BA408A5005B19043B19680029E4
:1053C0000FD0106197E702CE8DB2ED190F0C2914A2
:1053D00079180F14ADB209040D43614620C18C4603
:1053E000DDE70138E9E7C046866E000032020000C2
:1053F000FC6E00000F4B19400F4BC918002904DD4B
:1054000000220B00100019007047494200220023BF
:105410000915132904DC8020000308410300F1E78B
:10542000143901201E2902DC80200006C840020039
:10543000E8E7C0460000F07F0000C0FCF7B50600BA
:10544000036914369B00F3181D1F2C680F00200001
:105450000193FFF743FD20231B1A1F493B600A28D5
:1054600016DC0B2327001B1ADF4039439C460B0038
:105470000021AE4202D201990839096815308440F2
:105480006046C1400C4322001000190003B0F0BD7B
:105490000027AE4202D2019D083D2F680B235B42DC
:1054A0009C4684440B2813D0634620209C40C01A9D
:1054B0003B00C3401C4321430B000021B54201D9EE
:1054C000043D29686446C140A7400F433A00DBE72A
:1054D00021430B00FAE7C0460000F03FF7B5012179
:1054E00014001E00089FFFF701FC051E05D10200F5
:1054F000264B2749274800F095FE330376001B0B07
:10550000760D24D10193002C27D068460094FFF734
:10551000FFFC009C00281ED0019B20211A00091AC4
:105520008A40C34022436A610193019CAC61631EBF
:105530009C4101342C61002E18D0174BF6183523EE
:105540003618181A099B3E6018602800FEBD80229C
:1055500052031343D6E76C61E7E701A8FFF7D8FCD5
:105560000124019B2C616B612030E4E70B4BC018D8
:105570000B4B3860E3189B00EB185869FFF7AEFC43
:105580006401099B241A1C60DFE7C046866E000098
:105590000A030000FC6E0000CDFBFFFFCEFBFFFF07
:1055A000FFFFFF3FF0B587B00F0004A90600FFF72B
:1055B00045FF00900191009C019D380005A9FFF76F
:1055C0003DFF02900391029A039B31693869059E61
:1055D000081A04994001891B41180805002907DDB4
:1055E0000199451820002900FBF72CFE07B0F0BDFB
:1055F00003990B1AF6E7000010B50400172805DC24
:10560000074CC00024182068616810BD00200549BF
:105610000022054B013CFCF70BF9002CF8D1F4E714
:10562000A86F00000000F03F0000244070B5140097
:1056300005000139136949110131890014349B00B7
:105640004118E318A3420DD81400113400259C42E0
:1056500003D89B1A113B9B089D00002340198142EF
:1056600003D870BD40CC40C5ECE708C0F7E70200A6
:10567000006910B514324B11984213DB0CDD1F2466
:1056800008002040214207D099008C582100C140D9
:10569000814001208C4204D19B00D318934203D84F
:1056A000002010BD0300F7E7043B19680029F5D07E
:1056B0000120F6E770B5130C0D0C1ED1002B0CD198
:1056C00089B294B24C43210000F08CF8051E1BD027
:1056D00022000021FFF702FB16E01D1C0B1C92B2FA
:1056E00089B29CB25143ABB263430C0C1C19220C1F
:1056F00007D1240489B20C43E5E7002B01D1131C28
:10570000EDE70C2300250360280070BD70B505008F
:10571000002910D00C1F2368002B00DAE4182800A1
:1057200001F0FEF81D4A1368002B05D16360146078
:10573000280001F0FDF870BDA34208D92168601867
:105740008342F3D118685B6841182160EEE71A00C4
:105750005B68002B01D0A342F9D911685018A04210
:105760000BD120680918501811608342E0D11868E5
:105770005B68411811605360DAE7A04202D90C233C
:105780002B60D5E721686018834203D118685B68F5
:105790004118216063605460CAE7C04608020010E7
:1057A00070B50F4E0D0031680400002902D100F0E1
:1057B000EDFB30602900200000F0E8FB431C0AD01C
:1057C0000323C51C9D43A84207D0291A200000F0DE
:1057D000DDFB431C01D101256D42280070BDC04690
:1057E0000C020010F7B50322CB1C934308330600CC
:1057F0001F000C2B32D20C27B94231D8300001F0F7
:105800008FF8324D2B681C00002C2ED1390030004F
:10581000FFF7C6FF0400431C1ED12C682500002D95
:105820004AD123682900E3183000019300F0AEFB51
:10583000019B834243D123680337FF1A03239F430D
:1058400008370C2F00D20C2739003000FFF7A8FFD3
:10585000431C34D02368DF19276013E0002BCBDA18
:105860000C23002533602800FEBD2268D11B20D404
:105870000B2917D9E2192760A34211D12A60636866
:10588000116053603000250001F052F807220B35FB
:10589000231D9543EA1A9D42E5D05B1BA350E2E726
:1058A0005A60ECE76268A34201D12A60EAE75A60D5
:1058B000E8E723006468A7E72C006D68AFE70C23D6
:1058C0003000336001F034F8CDE7C0460802001024
:1058D000F0B58E6885B007000C00039201939E42DC
:1058E0003CD890238A89DB001A4234D009692368A6
:1058F00060695B1A029303234343DD0FED18019B9C
:10590000029801331B186D10AB4200D91D005305DE
:1059100032D529003800FFF765FF061E09D10C2398
:105920003B6040230120A28940421343A38105B07C
:10593000F0BD029A2169FFF7C8F9A389144A1A40F9
:1059400080231343A381029B2661F61826606561BC
:10595000019EED1AA560019B9E4200D9019E320076
:105960000399206800F0C8FFA36800209B1BA36078
:1059700023689E192660DAE72A00380000F0E0FF6D
:10598000061EE0D138002169FFF7C0FEC7E7C04618
:105990007FFBFFFFF0B5936887B00C001700029003
:1059A000002B65D013680393002305930193019B9B
:1059B000002B2DD0A6689E4249D89023A289DB00F7
:1059C0001A4241D00320216923685B1A049363695A
:1059D0004343DD0FED18049B019801331B186D1034
:1059E000AB4200D91D00530546D529000298FFF7A8
:1059F000F9FE061E16D10C23029A012013604023E3
:105A0000A28940421343A3810023BB607B6031E045
:105A1000039B1B680593039B5B680193039B0833FF
:105A20000393C4E7049A2169FFF74FF9A389184A41
:105A30001A4080231343A381049B2661F618266035
:105A40006561019EED1AA560019B9E4200D9019EF1
:105A500032000599206800F04FFFA368019A9B1B54
:105A6000A36023689E19BB6826609B1ABB60CFD1D8
:105A70000020786007B0F0BD2A00029800F060FFB7
:105A8000061ED9D121690298FFF740FEB3E7C04650
:105A90007FFBFFFFF0B5A1B003901D008B890F00C5
:105AA00016001B0611D50B69002B0ED14021FFF704
:105AB00099FE38603861002805D10C23039A01381B
:105AC000136021B0F0BD40237B61002308AC63610B
:105AD000203363761033A376079535002B78002B9F
